{"contracts/RouteContract.sol":{"RouteContract":{"abi":[{"inputs":[{"internalType":"uint256","name":"_id","type":"uint256"},{"internalType":"string","name":"_location","type":"string"},{"internalType":"string","name":"_name","type":"string"}],"stateMutability":"nonpayable","type":"constructor"},{"inputs":[{"internalType":"address","name":"_car","type":"address"}],"name":"enterWhiteList","outputs":[],"stateMutability":"payable","type":"function"},{"inputs":[{"internalType":"address","name":"_car","type":"address"}],"name":"getCarFromWhitelist","outputs":[{"internalType":"address","name":"","type":"address"}],"stateMutability":"view","type":"function"},{"inputs":[],"name":"getName","outputs":[{"internalType":"string","name":"","type":"string"}],"stateMutability":"view","type":"function"},{"inputs":[],"name":"getWhiteListedCars","outputs":[{"internalType":"address[]","name":"","type":"address[]"}],"stateMutability":"view","type":"function"},{"inputs":[],"name":"getWhiteListedCarsNumber","outputs":[{"internalType":"uint256","name":"","type":"uint256"}],"stateMutability":"view","type":"function"},{"inputs":[{"internalType":"address","name":"_car","type":"address"}],"name":"leaveWhiteList","outputs":[],"stateMutability":"nonpayable","type":"function"},{"inputs":[{"internalType":"uint256","name":"index","type":"uint256"}],"name":"reorderWhiteList","outputs":[],"stateMutability":"nonpayable","type":"function"},{"inputs":[{"internalType":"string","name":"_name","type":"string"}],"name":"setName","outputs":[],"stateMutability":"payable","type":"function"},{"inputs":[{"internalType":"uint256","name":"_idDeleted","type":"uint256"}],"name":"updateId","outputs":[],"stateMutability":"payable","type":"function"}],"evm":{"bytecode":{"linkReferences":{},"object":"60806040523480156200001157600080fd5b50604051620018283803806200182883398181016040528101906200003791906200034d565b8260008190555080600190816200004f919062000628565b50816002908162000061919062000628565b50600067ffffffffffffffff81111562000080576200007f620001e9565b5b604051908082528060200260200182016040528015620000af5781602001602082028036833780820191505090505b5060039080519060200190620000c7929190620000d1565b505050506200070f565b8280548282559060005260206000209081019282156200014d579160200282015b828111156200014c5782518260006101000a81548173ffffffffffffffffffffffffffffffffffffffff021916908373ffffffffffffffffffffffffffffffffffffffff16021790555091602001919060010190620000f2565b5b5090506200015c919062000160565b5090565b5b808211156200017b57600081600090555060010162000161565b5090565b6000604051905090565b600080fd5b600080fd5b6000819050919050565b620001a88162000193565b8114620001b457600080fd5b50565b600081519050620001c8816200019d565b92915050565b600080fd5b600080fd5b6000601f19601f8301169050919050565b7f4e487b7100000000000000000000000000000000000000000000000000000000600052604160045260246000fd5b6200022382620001d8565b810181811067ffffffffffffffff82111715620002455762000244620001e9565b5b80604052505050565b60006200025a6200017f565b905062000268828262000218565b919050565b600067ffffffffffffffff8211156200028b576200028a620001e9565b5b6200029682620001d8565b9050602081019050919050565b60005b83811015620002c3578082015181840152602081019050620002a6565b60008484015250505050565b6000620002e6620002e0846200026d565b6200024e565b905082815260208101848484011115620003055762000304620001d3565b5b62000312848285620002a3565b509392505050565b600082601f830112620003325762000331620001ce565b5b815162000344848260208601620002cf565b91505092915050565b60008060006060848603121562000369576200036862000189565b5b60006200037986828701620001b7565b935050602084015167ffffffffffffffff8111156200039d576200039c6200018e565b5b620003ab868287016200031a565b925050604084015167ffffffffffffffff811115620003cf57620003ce6200018e565b5b620003dd868287016200031a565b9150509250925092565b600081519050919050565b7f4e487b7100000000000000000000000000000000000000000000000000000000600052602260045260246000fd5b600060028204905060018216806200043a57607f821691505b60208210810362000450576200044f620003f2565b5b50919050565b60008190508160005260206000209050919050565b60006020601f8301049050919050565b600082821b905092915050565b600060088302620004ba7fffffffffffffffffffffffffffffffffffffffffffffffffffffffffffffffff826200047b565b620004c686836200047b565b95508019841693508086168417925050509392505050565b6000819050919050565b60006200050962000503620004fd8462000193565b620004de565b62000193565b9050919050565b6000819050919050565b6200052583620004e8565b6200053d620005348262000510565b84845462000488565b825550505050565b600090565b6200055462000545565b620005618184846200051a565b505050565b5b8181101562000589576200057d6000826200054a565b60018101905062000567565b5050565b601f821115620005d857620005a28162000456565b620005ad846200046b565b81016020851015620005bd578190505b620005d5620005cc856200046b565b83018262000566565b50505b505050565b600082821c905092915050565b6000620005fd60001984600802620005dd565b1980831691505092915050565b6000620006188383620005ea565b9150826002028217905092915050565b6200063382620003e7565b67ffffffffffffffff8111156200064f576200064e620001e9565b5b6200065b825462000421565b620006688282856200058d565b600060209050601f831160018114620006a057600084156200068b578287015190505b6200069785826200060a565b86555062000707565b601f198416620006b08662000456565b60005b82811015620006da57848901518255600182019150602085019450602081019050620006b3565b86831015620006fa5784890151620006f6601f891682620005ea565b8355505b6001600288020188555050505b505050505050565b611109806200071f6000396000f3fe6080604052600436106100865760003560e01c8063ad4977ed11610059578063ad4977ed1461013a578063c47f002714610163578063d240ef6f1461017f578063ec5d1901146101a8578063f5385e48146101c457610086565b806317d7de7c1461008b5780631b847b21146100b657806336e2aed0146100e15780636df81c611461011e575b600080fd5b34801561009757600080fd5b506100a06101ef565b6040516100ad9190610876565b60405180910390f35b3480156100c257600080fd5b506100cb610281565b6040516100d891906108b1565b60405180910390f35b3480156100ed57600080fd5b506101086004803603810190610103919061093e565b61028e565b604051610115919061097a565b60405180910390f35b610138600480360381019061013391906109c1565b610379565b005b34801561014657600080fd5b50610161600480360381019061015c91906109c1565b6103c4565b005b61017d60048036038101906101789190610b23565b6104e8565b005b34801561018b57600080fd5b506101a660048036038101906101a1919061093e565b6104fb565b005b6101c260048036038101906101bd919061093e565b61064d565b005b3480156101d057600080fd5b506101d961072c565b6040516101e69190610c2a565b60405180910390f35b6060600180546101fe90610c7b565b80601f016020809104026020016040519081016040528092919081815260200182805461022a90610c7b565b80156102775780601f1061024c57610100808354040283529160200191610277565b820191906000526020600020905b81548152906001019060200180831161025a57829003601f168201915b5050505050905090565b6000600380549050905090565b6000806000905060005b60038054905081101561036f578373ffffffffffffffffffffffffffffffffffffffff16600382815481106102d0576102cf610cac565b5b9060005260206000200160009054906101000a900473ffffffffffffffffffffffffffffffffffffffff1673ffffffffffffffffffffffffffffffffffffffff160361035c576003818154811061032a57610329610cac565b5b9060005260206000200160009054906101000a900473ffffffffffffffffffffffffffffffffffffffff16915061036f565b808061036790610d0a565b915050610298565b5080915050919050565b6000548110156103a45761039960016000546107ba90919063ffffffff16565b6000819055506103c1565b6103ba60016000546107d090919063ffffffff16565b6000819055505b50565b60008190505b60016003805490506103dc9190610d52565b81101561049d5760036001826103f29190610d86565b8154811061040357610402610cac565b5b9060005260206000200160009054906101000a900473ffffffffffffffffffffffffffffffffffffffff166003828154811061044257610441610cac565b5b9060005260206000200160006101000a81548173ffffffffffffffffffffffffffffffffffffffff021916908373ffffffffffffffffffffffffffffffffffffffff160217905550808061049590610d0a565b9150506103ca565b5060038054806104b0576104af610dba565b5b6001900381819060005260206000200160006101000a81549073ffffffffffffffffffffffffffffffffffffffff0219169055905550565b80600190816104f79190610f95565b5050565b60005b600380549050811015610649578173ffffffffffffffffffffffffffffffffffffffff166003828154811061053657610535610cac565b5b9060005260206000200160009054906101000a900473ffffffffffffffffffffffffffffffffffffffff1673ffffffffffffffffffffffffffffffffffffffff160361063657600360016003805490506105909190610d52565b815481106105a1576105a0610cac565b5b9060005260206000200160009054906101000a900473ffffffffffffffffffffffffffffffffffffffff16600382815481106105e0576105df610cac565b5b9060005260206000200160006101000a81548173ffffffffffffffffffffffffffffffffffffffff021916908373ffffffffffffffffffffffffffffffffffffffff160217905550610631816103c4565b610649565b808061064190610d0a565b9150506104fe565b5050565b80600073ffffffffffffffffffffffffffffffffffffffff1661066f8261028e565b73ffffffffffffffffffffffffffffffffffffffff16146106c5576040517f08c379a00000000000000000000000000000000000000000000000000000000081526004016106bc906110b3565b60405180910390fd5b6003829080600181540180825580915050600190039060005260206000200160009091909190916101000a81548173ffffffffffffffffffffffffffffffffffffffff021916908373ffffffffffffffffffffffffffffffffffffffff1602179055505050565b606060038054806020026020016040519081016040528092919081815260200182805480156107b057602002820191906000526020600020905b8160009054906101000a900473ffffffffffffffffffffffffffffffffffffffff1673ffffffffffffffffffffffffffffffffffffffff1681526020019060010190808311610766575b5050505050905090565b600081836107c89190610d52565b905092915050565b600081836107de9190610d86565b905092915050565b600081519050919050565b600082825260208201905092915050565b60005b83811015610820578082015181840152602081019050610805565b60008484015250505050565b6000601f19601f8301169050919050565b6000610848826107e6565b61085281856107f1565b9350610862818560208601610802565b61086b8161082c565b840191505092915050565b60006020820190508181036000830152610890818461083d565b905092915050565b6000819050919050565b6108ab81610898565b82525050565b60006020820190506108c660008301846108a2565b92915050565b6000604051905090565b600080fd5b600080fd5b600073ffffffffffffffffffffffffffffffffffffffff82169050919050565b600061090b826108e0565b9050919050565b61091b81610900565b811461092657600080fd5b50565b60008135905061093881610912565b92915050565b600060208284031215610954576109536108d6565b5b600061096284828501610929565b91505092915050565b61097481610900565b82525050565b600060208201905061098f600083018461096b565b92915050565b61099e81610898565b81146109a957600080fd5b50565b6000813590506109bb81610995565b92915050565b6000602082840312156109d7576109d66108d6565b5b60006109e5848285016109ac565b91505092915050565b600080fd5b600080fd5b7f4e487b7100000000000000000000000000000000000000000000000000000000600052604160045260246000fd5b610a308261082c565b810181811067ffffffffffffffff82111715610a4f57610a4e6109f8565b5b80604052505050565b6000610a626108cc565b9050610a6e8282610a27565b919050565b600067ffffffffffffffff821115610a8e57610a8d6109f8565b5b610a978261082c565b9050602081019050919050565b82818337600083830152505050565b6000610ac6610ac184610a73565b610a58565b905082815260208101848484011115610ae257610ae16109f3565b5b610aed848285610aa4565b509392505050565b600082601f830112610b0a57610b096109ee565b5b8135610b1a848260208601610ab3565b91505092915050565b600060208284031215610b3957610b386108d6565b5b600082013567ffffffffffffffff811115610b5757610b566108db565b5b610b6384828501610af5565b91505092915050565b600081519050919050565b600082825260208201905092915050565b6000819050602082019050919050565b610ba181610900565b82525050565b6000610bb38383610b98565b60208301905092915050565b6000602082019050919050565b6000610bd782610b6c565b610be18185610b77565b9350610bec83610b88565b8060005b83811015610c1d578151610c048882610ba7565b9750610c0f83610bbf565b925050600181019050610bf0565b5085935050505092915050565b60006020820190508181036000830152610c448184610bcc565b905092915050565b7f4e487b7100000000000000000000000000000000000000000000000000000000600052602260045260246000fd5b60006002820490506001821680610c9357607f821691505b602082108103610ca657610ca5610c4c565b5b50919050565b7f4e487b7100000000000000000000000000000000000000000000000000000000600052603260045260246000fd5b7f4e487b7100000000000000000000000000000000000000000000000000000000600052601160045260246000fd5b6000610d1582610898565b91507fffffffffffffffffffffffffffffffffffffffffffffffffffffffffffffffff8203610d4757610d46610cdb565b5b600182019050919050565b6000610d5d82610898565b9150610d6883610898565b9250828203905081811115610d8057610d7f610cdb565b5b92915050565b6000610d9182610898565b9150610d9c83610898565b9250828201905080821115610db457610db3610cdb565b5b92915050565b7f4e487b7100000000000000000000000000000000000000000000000000000000600052603160045260246000fd5b60008190508160005260206000209050919050565b60006020601f8301049050919050565b600082821b905092915050565b600060088302610e4b7fffffffffffffffffffffffffffffffffffffffffffffffffffffffffffffffff82610e0e565b610e558683610e0e565b95508019841693508086168417925050509392505050565b6000819050919050565b6000610e92610e8d610e8884610898565b610e6d565b610898565b9050919050565b6000819050919050565b610eac83610e77565b610ec0610eb882610e99565b848454610e1b565b825550505050565b600090565b610ed5610ec8565b610ee0818484610ea3565b505050565b5b81811015610f0457610ef9600082610ecd565b600181019050610ee6565b5050565b601f821115610f4957610f1a81610de9565b610f2384610dfe565b81016020851015610f32578190505b610f46610f3e85610dfe565b830182610ee5565b50505b505050565b600082821c905092915050565b6000610f6c60001984600802610f4e565b1980831691505092915050565b6000610f858383610f5b565b9150826002028217905092915050565b610f9e826107e6565b67ffffffffffffffff811115610fb757610fb66109f8565b5b610fc18254610c7b565b610fcc828285610f08565b600060209050601f831160018114610fff5760008415610fed578287015190505b610ff78582610f79565b86555061105f565b601f19841661100d86610de9565b60005b8281101561103557848901518255600182019150602085019450602081019050611010565b86831015611052578489015161104e601f891682610f5b565b8355505b6001600288020188555050505b505050505050565b7f416c726561647920696e20726f75746500000000000000000000000000000000600082015250565b600061109d6010836107f1565b91506110a882611067565b602082019050919050565b600060208201905081810360008301526110cc81611090565b905091905056fea2646970667358221220c224e50bd1a83dfee46b1b0146ed15c4d3a654f1aac2add68d04b6ba2ce06bfd64736f6c63430008110033","opcodes":"PUSH1 0x80 PUSH1 0x40 MSTORE CALLVALUE DUP1 ISZERO PUSH3 0x11 JUMPI PUSH1 0x0 DUP1 REVERT JUMPDEST POP PUSH1 0x40 MLOAD PUSH3 0x1828 CODESIZE SUB DUP1 PUSH3 0x1828 DUP4 CODECOPY DUP2 DUP2 ADD PUSH1 0x40 MSTORE DUP2 ADD SWAP1 PUSH3 0x37 SWAP2 SWAP1 PUSH3 0x34D JUMP JUMPDEST DUP3 PUSH1 0x0 DUP2 SWAP1 SSTORE POP DUP1 PUSH1 0x1 SWAP1 DUP2 PUSH3 0x4F SWAP2 SWAP1 PUSH3 0x628 JUMP JUMPDEST POP DUP2 PUSH1 0x2 SWAP1 DUP2 PUSH3 0x61 SWAP2 SWAP1 PUSH3 0x628 JUMP JUMPDEST POP PUSH1 0x0 PUSH8 0xFFFFFFFFFFFFFFFF DUP2 GT ISZERO PUSH3 0x80 JUMPI PUSH3 0x7F PUSH3 0x1E9 JUMP JUMPDEST JUMPDEST PUSH1 0x40 MLOAD SWAP1 DUP1 DUP3 MSTORE DUP1 PUSH1 0x20 MUL PUSH1 0x20 ADD DUP3 ADD PUSH1 0x40 MSTORE DUP1 ISZERO PUSH3 0xAF JUMPI DUP2 PUSH1 0x20 ADD PUSH1 0x20 DUP3 MUL DUP1 CALLDATASIZE DUP4 CALLDATACOPY DUP1 DUP3 ADD SWAP2 POP POP SWAP1 POP JUMPDEST POP PUSH1 0x3 SWAP1 DUP1 MLOAD SWAP1 PUSH1 0x20 ADD SWAP1 PUSH3 0xC7 SWAP3 SWAP2 SWAP1 PUSH3 0xD1 JUMP JUMPDEST POP POP POP POP PUSH3 0x70F JUMP JUMPDEST DUP3 DUP1 SLOAD DUP3 DUP3 SSTORE SWAP1 PUSH1 0x0 MSTORE PUSH1 0x20 PUSH1 0x0 KECCAK256 SWAP1 DUP2 ADD SWAP3 DUP3 ISZERO PUSH3 0x14D JUMPI SWAP2 PUSH1 0x20 MUL DUP3 ADD JUMPDEST DUP3 DUP2 GT ISZERO PUSH3 0x14C JUMPI DUP3 MLOAD DUP3 PUSH1 0x0 PUSH2 0x100 EXP DUP2 SLOAD DUP2 PUSH20 0xFFFFFFFFFFFFFFFFFFFFFFFFFFFFFFFFFFFFFFFF MUL NOT AND SWAP1 DUP4 PUSH20 0xFFFFFFFFFFFFFFFFFFFFFFFFFFFFFFFFFFFFFFFF AND MUL OR SWAP1 SSTORE POP SWAP2 PUSH1 0x20 ADD SWAP2 SWAP1 PUSH1 0x1 ADD SWAP1 PUSH3 0xF2 JUMP JUMPDEST JUMPDEST POP SWAP1 POP PUSH3 0x15C SWAP2 SWAP1 PUSH3 0x160 JUMP JUMPDEST POP SWAP1 JUMP JUMPDEST JUMPDEST DUP1 DUP3 GT ISZERO PUSH3 0x17B JUMPI PUSH1 0x0 DUP2 PUSH1 0x0 SWAP1 SSTORE POP PUSH1 0x1 ADD PUSH3 0x161 JUMP JUMPDEST POP SWAP1 JUMP JUMPDEST PUSH1 0x0 PUSH1 0x40 MLOAD SWAP1 POP SWAP1 JUMP JUMPDEST PUSH1 0x0 DUP1 REVERT JUMPDEST PUSH1 0x0 DUP1 REVERT JUMPDEST PUSH1 0x0 DUP2 SWAP1 POP SWAP2 SWAP1 POP JUMP JUMPDEST PUSH3 0x1A8 DUP2 PUSH3 0x193 JUMP JUMPDEST DUP2 EQ PUSH3 0x1B4 JUMPI PUSH1 0x0 DUP1 REVERT JUMPDEST POP JUMP JUMPDEST PUSH1 0x0 DUP2 MLOAD SWAP1 POP PUSH3 0x1C8 DUP2 PUSH3 0x19D JUMP JUMPDEST SWAP3 SWAP2 POP POP JUMP JUMPDEST PUSH1 0x0 DUP1 REVERT JUMPDEST PUSH1 0x0 DUP1 REVERT JUMPDEST PUSH1 0x0 PUSH1 0x1F NOT PUSH1 0x1F DUP4 ADD AND SWAP1 POP SWAP2 SWAP1 POP JUMP JUMPDEST PUSH32 0x4E487B7100000000000000000000000000000000000000000000000000000000 PUSH1 0x0 MSTORE PUSH1 0x41 PUSH1 0x4 MSTORE PUSH1 0x24 PUSH1 0x0 REVERT JUMPDEST PUSH3 0x223 DUP3 PUSH3 0x1D8 JUMP JUMPDEST DUP2 ADD DUP2 DUP2 LT PUSH8 0xFFFFFFFFFFFFFFFF DUP3 GT OR ISZERO PUSH3 0x245 JUMPI PUSH3 0x244 PUSH3 0x1E9 JUMP JUMPDEST JUMPDEST DUP1 PUSH1 0x40 MSTORE POP POP POP JUMP JUMPDEST PUSH1 0x0 PUSH3 0x25A PUSH3 0x17F JUMP JUMPDEST SWAP1 POP PUSH3 0x268 DUP3 DUP3 PUSH3 0x218 JUMP JUMPDEST SWAP2 SWAP1 POP JUMP JUMPDEST PUSH1 0x0 PUSH8 0xFFFFFFFFFFFFFFFF DUP3 GT ISZERO PUSH3 0x28B JUMPI PUSH3 0x28A PUSH3 0x1E9 JUMP JUMPDEST JUMPDEST PUSH3 0x296 DUP3 PUSH3 0x1D8 JUMP JUMPDEST SWAP1 POP PUSH1 0x20 DUP2 ADD SWAP1 POP SWAP2 SWAP1 POP JUMP JUMPDEST PUSH1 0x0 JUMPDEST DUP4 DUP2 LT ISZERO PUSH3 0x2C3 JUMPI DUP1 DUP3 ADD MLOAD DUP2 DUP5 ADD MSTORE PUSH1 0x20 DUP2 ADD SWAP1 POP PUSH3 0x2A6 JUMP JUMPDEST PUSH1 0x0 DUP5 DUP5 ADD MSTORE POP POP POP POP JUMP JUMPDEST PUSH1 0x0 PUSH3 0x2E6 PUSH3 0x2E0 DUP5 PUSH3 0x26D JUMP JUMPDEST PUSH3 0x24E JUMP JUMPDEST SWAP1 POP DUP3 DUP2 MSTORE PUSH1 0x20 DUP2 ADD DUP5 DUP5 DUP5 ADD GT ISZERO PUSH3 0x305 JUMPI PUSH3 0x304 PUSH3 0x1D3 JUMP JUMPDEST JUMPDEST PUSH3 0x312 DUP5 DUP3 DUP6 PUSH3 0x2A3 JUMP JUMPDEST POP SWAP4 SWAP3 POP POP POP JUMP JUMPDEST PUSH1 0x0 DUP3 PUSH1 0x1F DUP4 ADD SLT PUSH3 0x332 JUMPI PUSH3 0x331 PUSH3 0x1CE JUMP JUMPDEST JUMPDEST DUP2 MLOAD PUSH3 0x344 DUP5 DUP3 PUSH1 0x20 DUP7 ADD PUSH3 0x2CF JUMP JUMPDEST SWAP2 POP POP SWAP3 SWAP2 POP POP JUMP JUMPDEST PUSH1 0x0 DUP1 PUSH1 0x0 PUSH1 0x60 DUP5 DUP7 SUB SLT ISZERO PUSH3 0x369 JUMPI PUSH3 0x368 PUSH3 0x189 JUMP JUMPDEST JUMPDEST PUSH1 0x0 PUSH3 0x379 DUP7 DUP3 DUP8 ADD PUSH3 0x1B7 JUMP JUMPDEST SWAP4 POP POP PUSH1 0x20 DUP5 ADD MLOAD PUSH8 0xFFFFFFFFFFFFFFFF DUP2 GT ISZERO PUSH3 0x39D JUMPI PUSH3 0x39C PUSH3 0x18E JUMP JUMPDEST JUMPDEST PUSH3 0x3AB DUP7 DUP3 DUP8 ADD PUSH3 0x31A JUMP JUMPDEST SWAP3 POP POP PUSH1 0x40 DUP5 ADD MLOAD PUSH8 0xFFFFFFFFFFFFFFFF DUP2 GT ISZERO PUSH3 0x3CF JUMPI PUSH3 0x3CE PUSH3 0x18E JUMP JUMPDEST JUMPDEST PUSH3 0x3DD DUP7 DUP3 DUP8 ADD PUSH3 0x31A JUMP JUMPDEST SWAP2 POP POP SWAP3 POP SWAP3 POP SWAP3 JUMP JUMPDEST PUSH1 0x0 DUP2 MLOAD SWAP1 POP SWAP2 SWAP1 POP JUMP JUMPDEST PUSH32 0x4E487B7100000000000000000000000000000000000000000000000000000000 PUSH1 0x0 MSTORE PUSH1 0x22 PUSH1 0x4 MSTORE PUSH1 0x24 PUSH1 0x0 REVERT JUMPDEST PUSH1 0x0 PUSH1 0x2 DUP3 DIV SWAP1 POP PUSH1 0x1 DUP3 AND DUP1 PUSH3 0x43A JUMPI PUSH1 0x7F DUP3 AND SWAP2 POP JUMPDEST PUSH1 0x20 DUP3 LT DUP2 SUB PUSH3 0x450 JUMPI PUSH3 0x44F PUSH3 0x3F2 JUMP JUMPDEST JUMPDEST POP SWAP2 SWAP1 POP JUMP JUMPDEST PUSH1 0x0 DUP2 SWAP1 POP DUP2 PUSH1 0x0 MSTORE PUSH1 0x20 PUSH1 0x0 KECCAK256 SWAP1 POP SWAP2 SWAP1 POP JUMP JUMPDEST PUSH1 0x0 PUSH1 0x20 PUSH1 0x1F DUP4 ADD DIV SWAP1 POP SWAP2 SWAP1 POP JUMP JUMPDEST PUSH1 0x0 DUP3 DUP3 SHL SWAP1 POP SWAP3 SWAP2 POP POP JUMP JUMPDEST PUSH1 0x0 PUSH1 0x8 DUP4 MUL PUSH3 0x4BA PUSH32 0xFFFFFFFFFFFFFFFFFFFFFFFFFFFFFFFFFFFFFFFFFFFFFFFFFFFFFFFFFFFFFFFF DUP3 PUSH3 0x47B JUMP JUMPDEST PUSH3 0x4C6 DUP7 DUP4 PUSH3 0x47B JUMP JUMPDEST SWAP6 POP DUP1 NOT DUP5 AND SWAP4 POP DUP1 DUP7 AND DUP5 OR SWAP3 POP POP POP SWAP4 SWAP3 POP POP POP JUMP JUMPDEST PUSH1 0x0 DUP2 SWAP1 POP SWAP2 SWAP1 POP JUMP JUMPDEST PUSH1 0x0 PUSH3 0x509 PUSH3 0x503 PUSH3 0x4FD DUP5 PUSH3 0x193 JUMP JUMPDEST PUSH3 0x4DE JUMP JUMPDEST PUSH3 0x193 JUMP JUMPDEST SWAP1 POP SWAP2 SWAP1 POP JUMP JUMPDEST PUSH1 0x0 DUP2 SWAP1 POP SWAP2 SWAP1 POP JUMP JUMPDEST PUSH3 0x525 DUP4 PUSH3 0x4E8 JUMP JUMPDEST PUSH3 0x53D PUSH3 0x534 DUP3 PUSH3 0x510 JUMP JUMPDEST DUP5 DUP5 SLOAD PUSH3 0x488 JUMP JUMPDEST DUP3 SSTORE POP POP POP POP JUMP JUMPDEST PUSH1 0x0 SWAP1 JUMP JUMPDEST PUSH3 0x554 PUSH3 0x545 JUMP JUMPDEST PUSH3 0x561 DUP2 DUP5 DUP5 PUSH3 0x51A JUMP JUMPDEST POP POP POP JUMP JUMPDEST JUMPDEST DUP2 DUP2 LT ISZERO PUSH3 0x589 JUMPI PUSH3 0x57D PUSH1 0x0 DUP3 PUSH3 0x54A JUMP JUMPDEST PUSH1 0x1 DUP2 ADD SWAP1 POP PUSH3 0x567 JUMP JUMPDEST POP POP JUMP JUMPDEST PUSH1 0x1F DUP3 GT ISZERO PUSH3 0x5D8 JUMPI PUSH3 0x5A2 DUP2 PUSH3 0x456 JUMP JUMPDEST PUSH3 0x5AD DUP5 PUSH3 0x46B JUMP JUMPDEST DUP2 ADD PUSH1 0x20 DUP6 LT ISZERO PUSH3 0x5BD JUMPI DUP2 SWAP1 POP JUMPDEST PUSH3 0x5D5 PUSH3 0x5CC DUP6 PUSH3 0x46B JUMP JUMPDEST DUP4 ADD DUP3 PUSH3 0x566 JUMP JUMPDEST POP POP JUMPDEST POP POP POP JUMP JUMPDEST PUSH1 0x0 DUP3 DUP3 SHR SWAP1 POP SWAP3 SWAP2 POP POP JUMP JUMPDEST PUSH1 0x0 PUSH3 0x5FD PUSH1 0x0 NOT DUP5 PUSH1 0x8 MUL PUSH3 0x5DD JUMP JUMPDEST NOT DUP1 DUP4 AND SWAP2 POP POP SWAP3 SWAP2 POP POP JUMP JUMPDEST PUSH1 0x0 PUSH3 0x618 DUP4 DUP4 PUSH3 0x5EA JUMP JUMPDEST SWAP2 POP DUP3 PUSH1 0x2 MUL DUP3 OR SWAP1 POP SWAP3 SWAP2 POP POP JUMP JUMPDEST PUSH3 0x633 DUP3 PUSH3 0x3E7 JUMP JUMPDEST PUSH8 0xFFFFFFFFFFFFFFFF DUP2 GT ISZERO PUSH3 0x64F JUMPI PUSH3 0x64E PUSH3 0x1E9 JUMP JUMPDEST JUMPDEST PUSH3 0x65B DUP3 SLOAD PUSH3 0x421 JUMP JUMPDEST PUSH3 0x668 DUP3 DUP3 DUP6 PUSH3 0x58D JUMP JUMPDEST PUSH1 0x0 PUSH1 0x20 SWAP1 POP PUSH1 0x1F DUP4 GT PUSH1 0x1 DUP2 EQ PUSH3 0x6A0 JUMPI PUSH1 0x0 DUP5 ISZERO PUSH3 0x68B JUMPI DUP3 DUP8 ADD MLOAD SWAP1 POP JUMPDEST PUSH3 0x697 DUP6 DUP3 PUSH3 0x60A JUMP JUMPDEST DUP7 SSTORE POP PUSH3 0x707 JUMP JUMPDEST PUSH1 0x1F NOT DUP5 AND PUSH3 0x6B0 DUP7 PUSH3 0x456 JUMP JUMPDEST PUSH1 0x0 JUMPDEST DUP3 DUP2 LT ISZERO PUSH3 0x6DA JUMPI DUP5 DUP10 ADD MLOAD DUP3 SSTORE PUSH1 0x1 DUP3 ADD SWAP2 POP PUSH1 0x20 DUP6 ADD SWAP5 POP PUSH1 0x20 DUP2 ADD SWAP1 POP PUSH3 0x6B3 JUMP JUMPDEST DUP7 DUP4 LT ISZERO PUSH3 0x6FA JUMPI DUP5 DUP10 ADD MLOAD PUSH3 0x6F6 PUSH1 0x1F DUP10 AND DUP3 PUSH3 0x5EA JUMP JUMPDEST DUP4 SSTORE POP JUMPDEST PUSH1 0x1 PUSH1 0x2 DUP9 MUL ADD DUP9 SSTORE POP POP POP JUMPDEST POP POP POP POP POP POP JUMP JUMPDEST PUSH2 0x1109 DUP1 PUSH3 0x71F PUSH1 0x0 CODECOPY PUSH1 0x0 RETURN INVALID PUSH1 0x80 PUSH1 0x40 MSTORE PUSH1 0x4 CALLDATASIZE LT PUSH2 0x86 JUMPI PUSH1 0x0 CALLDATALOAD PUSH1 0xE0 SHR DUP1 PUSH4 0xAD4977ED GT PUSH2 0x59 JUMPI DUP1 PUSH4 0xAD4977ED EQ PUSH2 0x13A JUMPI DUP1 PUSH4 0xC47F0027 EQ PUSH2 0x163 JUMPI DUP1 PUSH4 0xD240EF6F EQ PUSH2 0x17F JUMPI DUP1 PUSH4 0xEC5D1901 EQ PUSH2 0x1A8 JUMPI DUP1 PUSH4 0xF5385E48 EQ PUSH2 0x1C4 JUMPI PUSH2 0x86 JUMP JUMPDEST DUP1 PUSH4 0x17D7DE7C EQ PUSH2 0x8B JUMPI DUP1 PUSH4 0x1B847B21 EQ PUSH2 0xB6 JUMPI DUP1 PUSH4 0x36E2AED0 EQ PUSH2 0xE1 JUMPI DUP1 PUSH4 0x6DF81C61 EQ PUSH2 0x11E JUMPI JUMPDEST PUSH1 0x0 DUP1 REVERT JUMPDEST CALLVALUE DUP1 ISZERO PUSH2 0x97 JUMPI PUSH1 0x0 DUP1 REVERT JUMPDEST POP PUSH2 0xA0 PUSH2 0x1EF JUMP JUMPDEST PUSH1 0x40 MLOAD PUSH2 0xAD SWAP2 SWAP1 PUSH2 0x876 JUMP JUMPDEST PUSH1 0x40 MLOAD DUP1 SWAP2 SUB SWAP1 RETURN JUMPDEST CALLVALUE DUP1 ISZERO PUSH2 0xC2 JUMPI PUSH1 0x0 DUP1 REVERT JUMPDEST POP PUSH2 0xCB PUSH2 0x281 JUMP JUMPDEST PUSH1 0x40 MLOAD PUSH2 0xD8 SWAP2 SWAP1 PUSH2 0x8B1 JUMP JUMPDEST PUSH1 0x40 MLOAD DUP1 SWAP2 SUB SWAP1 RETURN JUMPDEST CALLVALUE DUP1 ISZERO PUSH2 0xED JUMPI PUSH1 0x0 DUP1 REVERT JUMPDEST POP PUSH2 0x108 PUSH1 0x4 DUP1 CALLDATASIZE SUB DUP2 ADD SWAP1 PUSH2 0x103 SWAP2 SWAP1 PUSH2 0x93E JUMP JUMPDEST PUSH2 0x28E JUMP JUMPDEST PUSH1 0x40 MLOAD PUSH2 0x115 SWAP2 SWAP1 PUSH2 0x97A JUMP JUMPDEST PUSH1 0x40 MLOAD DUP1 SWAP2 SUB SWAP1 RETURN JUMPDEST PUSH2 0x138 PUSH1 0x4 DUP1 CALLDATASIZE SUB DUP2 ADD SWAP1 PUSH2 0x133 SWAP2 SWAP1 PUSH2 0x9C1 JUMP JUMPDEST PUSH2 0x379 JUMP JUMPDEST STOP JUMPDEST CALLVALUE DUP1 ISZERO PUSH2 0x146 JUMPI PUSH1 0x0 DUP1 REVERT JUMPDEST POP PUSH2 0x161 PUSH1 0x4 DUP1 CALLDATASIZE SUB DUP2 ADD SWAP1 PUSH2 0x15C SWAP2 SWAP1 PUSH2 0x9C1 JUMP JUMPDEST PUSH2 0x3C4 JUMP JUMPDEST STOP JUMPDEST PUSH2 0x17D PUSH1 0x4 DUP1 CALLDATASIZE SUB DUP2 ADD SWAP1 PUSH2 0x178 SWAP2 SWAP1 PUSH2 0xB23 JUMP JUMPDEST PUSH2 0x4E8 JUMP JUMPDEST STOP JUMPDEST CALLVALUE DUP1 ISZERO PUSH2 0x18B JUMPI PUSH1 0x0 DUP1 REVERT JUMPDEST POP PUSH2 0x1A6 PUSH1 0x4 DUP1 CALLDATASIZE SUB DUP2 ADD SWAP1 PUSH2 0x1A1 SWAP2 SWAP1 PUSH2 0x93E JUMP JUMPDEST PUSH2 0x4FB JUMP JUMPDEST STOP JUMPDEST PUSH2 0x1C2 PUSH1 0x4 DUP1 CALLDATASIZE SUB DUP2 ADD SWAP1 PUSH2 0x1BD SWAP2 SWAP1 PUSH2 0x93E JUMP JUMPDEST PUSH2 0x64D JUMP JUMPDEST STOP JUMPDEST CALLVALUE DUP1 ISZERO PUSH2 0x1D0 JUMPI PUSH1 0x0 DUP1 REVERT JUMPDEST POP PUSH2 0x1D9 PUSH2 0x72C JUMP JUMPDEST PUSH1 0x40 MLOAD PUSH2 0x1E6 SWAP2 SWAP1 PUSH2 0xC2A JUMP JUMPDEST PUSH1 0x40 MLOAD DUP1 SWAP2 SUB SWAP1 RETURN JUMPDEST PUSH1 0x60 PUSH1 0x1 DUP1 SLOAD PUSH2 0x1FE SWAP1 PUSH2 0xC7B JUMP JUMPDEST DUP1 PUSH1 0x1F ADD PUSH1 0x20 DUP1 SWAP2 DIV MUL PUSH1 0x20 ADD PUSH1 0x40 MLOAD SWAP1 DUP2 ADD PUSH1 0x40 MSTORE DUP1 SWAP3 SWAP2 SWAP1 DUP2 DUP2 MSTORE PUSH1 0x20 ADD DUP3 DUP1 SLOAD PUSH2 0x22A SWAP1 PUSH2 0xC7B JUMP JUMPDEST DUP1 ISZERO PUSH2 0x277 JUMPI DUP1 PUSH1 0x1F LT PUSH2 0x24C JUMPI PUSH2 0x100 DUP1 DUP4 SLOAD DIV MUL DUP4 MSTORE SWAP2 PUSH1 0x20 ADD SWAP2 PUSH2 0x277 JUMP JUMPDEST DUP3 ADD SWAP2 SWAP1 PUSH1 0x0 MSTORE PUSH1 0x20 PUSH1 0x0 KECCAK256 SWAP1 JUMPDEST DUP2 SLOAD DUP2 MSTORE SWAP1 PUSH1 0x1 ADD SWAP1 PUSH1 0x20 ADD DUP1 DUP4 GT PUSH2 0x25A JUMPI DUP3 SWAP1 SUB PUSH1 0x1F AND DUP3 ADD SWAP2 JUMPDEST POP POP POP POP POP SWAP1 POP SWAP1 JUMP JUMPDEST PUSH1 0x0 PUSH1 0x3 DUP1 SLOAD SWAP1 POP SWAP1 POP SWAP1 JUMP JUMPDEST PUSH1 0x0 DUP1 PUSH1 0x0 SWAP1 POP PUSH1 0x0 JUMPDEST PUSH1 0x3 DUP1 SLOAD SWAP1 POP DUP2 LT ISZERO PUSH2 0x36F JUMPI DUP4 PUSH20 0xFFFFFFFFFFFFFFFFFFFFFFFFFFFFFFFFFFFFFFFF AND PUSH1 0x3 DUP3 DUP2 SLOAD DUP2 LT PUSH2 0x2D0 JUMPI PUSH2 0x2CF PUSH2 0xCAC JUMP JUMPDEST JUMPDEST SWAP1 PUSH1 0x0 MSTORE PUSH1 0x20 PUSH1 0x0 KECCAK256 ADD PUSH1 0x0 SWAP1 SLOAD SWAP1 PUSH2 0x100 EXP SWAP1 DIV PUSH20 0xFFFFFFFFFFFFFFFFFFFFFFFFFFFFFFFFFFFFFFFF AND PUSH20 0xFFFFFFFFFFFFFFFFFFFFFFFFFFFFFFFFFFFFFFFF AND SUB PUSH2 0x35C JUMPI PUSH1 0x3 DUP2 DUP2 SLOAD DUP2 LT PUSH2 0x32A JUMPI PUSH2 0x329 PUSH2 0xCAC JUMP JUMPDEST JUMPDEST SWAP1 PUSH1 0x0 MSTORE PUSH1 0x20 PUSH1 0x0 KECCAK256 ADD PUSH1 0x0 SWAP1 SLOAD SWAP1 PUSH2 0x100 EXP SWAP1 DIV PUSH20 0xFFFFFFFFFFFFFFFFFFFFFFFFFFFFFFFFFFFFFFFF AND SWAP2 POP PUSH2 0x36F JUMP JUMPDEST DUP1 DUP1 PUSH2 0x367 SWAP1 PUSH2 0xD0A JUMP JUMPDEST SWAP2 POP POP PUSH2 0x298 JUMP JUMPDEST POP DUP1 SWAP2 POP POP SWAP2 SWAP1 POP JUMP JUMPDEST PUSH1 0x0 SLOAD DUP2 LT ISZERO PUSH2 0x3A4 JUMPI PUSH2 0x399 PUSH1 0x1 PUSH1 0x0 SLOAD PUSH2 0x7BA SWAP1 SWAP2 SWAP1 PUSH4 0xFFFFFFFF AND JUMP JUMPDEST PUSH1 0x0 DUP2 SWAP1 SSTORE POP PUSH2 0x3C1 JUMP JUMPDEST PUSH2 0x3BA PUSH1 0x1 PUSH1 0x0 SLOAD PUSH2 0x7D0 SWAP1 SWAP2 SWAP1 PUSH4 0xFFFFFFFF AND JUMP JUMPDEST PUSH1 0x0 DUP2 SWAP1 SSTORE POP JUMPDEST POP JUMP JUMPDEST PUSH1 0x0 DUP2 SWAP1 POP JUMPDEST PUSH1 0x1 PUSH1 0x3 DUP1 SLOAD SWAP1 POP PUSH2 0x3DC SWAP2 SWAP1 PUSH2 0xD52 JUMP JUMPDEST DUP2 LT ISZERO PUSH2 0x49D JUMPI PUSH1 0x3 PUSH1 0x1 DUP3 PUSH2 0x3F2 SWAP2 SWAP1 PUSH2 0xD86 JUMP JUMPDEST DUP2 SLOAD DUP2 LT PUSH2 0x403 JUMPI PUSH2 0x402 PUSH2 0xCAC JUMP JUMPDEST JUMPDEST SWAP1 PUSH1 0x0 MSTORE PUSH1 0x20 PUSH1 0x0 KECCAK256 ADD PUSH1 0x0 SWAP1 SLOAD SWAP1 PUSH2 0x100 EXP SWAP1 DIV PUSH20 0xFFFFFFFFFFFFFFFFFFFFFFFFFFFFFFFFFFFFFFFF AND PUSH1 0x3 DUP3 DUP2 SLOAD DUP2 LT PUSH2 0x442 JUMPI PUSH2 0x441 PUSH2 0xCAC JUMP JUMPDEST JUMPDEST SWAP1 PUSH1 0x0 MSTORE PUSH1 0x20 PUSH1 0x0 KECCAK256 ADD PUSH1 0x0 PUSH2 0x100 EXP DUP2 SLOAD DUP2 PUSH20 0xFFFFFFFFFFFFFFFFFFFFFFFFFFFFFFFFFFFFFFFF MUL NOT AND SWAP1 DUP4 PUSH20 0xFFFFFFFFFFFFFFFFFFFFFFFFFFFFFFFFFFFFFFFF AND MUL OR SWAP1 SSTORE POP DUP1 DUP1 PUSH2 0x495 SWAP1 PUSH2 0xD0A JUMP JUMPDEST SWAP2 POP POP PUSH2 0x3CA JUMP JUMPDEST POP PUSH1 0x3 DUP1 SLOAD DUP1 PUSH2 0x4B0 JUMPI PUSH2 0x4AF PUSH2 0xDBA JUMP JUMPDEST JUMPDEST PUSH1 0x1 SWAP1 SUB DUP2 DUP2 SWAP1 PUSH1 0x0 MSTORE PUSH1 0x20 PUSH1 0x0 KECCAK256 ADD PUSH1 0x0 PUSH2 0x100 EXP DUP2 SLOAD SWAP1 PUSH20 0xFFFFFFFFFFFFFFFFFFFFFFFFFFFFFFFFFFFFFFFF MUL NOT AND SWAP1 SSTORE SWAP1 SSTORE POP JUMP JUMPDEST DUP1 PUSH1 0x1 SWAP1 DUP2 PUSH2 0x4F7 SWAP2 SWAP1 PUSH2 0xF95 JUMP JUMPDEST POP POP JUMP JUMPDEST PUSH1 0x0 JUMPDEST PUSH1 0x3 DUP1 SLOAD SWAP1 POP DUP2 LT ISZERO PUSH2 0x649 JUMPI DUP2 PUSH20 0xFFFFFFFFFFFFFFFFFFFFFFFFFFFFFFFFFFFFFFFF AND PUSH1 0x3 DUP3 DUP2 SLOAD DUP2 LT PUSH2 0x536 JUMPI PUSH2 0x535 PUSH2 0xCAC JUMP JUMPDEST JUMPDEST SWAP1 PUSH1 0x0 MSTORE PUSH1 0x20 PUSH1 0x0 KECCAK256 ADD PUSH1 0x0 SWAP1 SLOAD SWAP1 PUSH2 0x100 EXP SWAP1 DIV PUSH20 0xFFFFFFFFFFFFFFFFFFFFFFFFFFFFFFFFFFFFFFFF AND PUSH20 0xFFFFFFFFFFFFFFFFFFFFFFFFFFFFFFFFFFFFFFFF AND SUB PUSH2 0x636 JUMPI PUSH1 0x3 PUSH1 0x1 PUSH1 0x3 DUP1 SLOAD SWAP1 POP PUSH2 0x590 SWAP2 SWAP1 PUSH2 0xD52 JUMP JUMPDEST DUP2 SLOAD DUP2 LT PUSH2 0x5A1 JUMPI PUSH2 0x5A0 PUSH2 0xCAC JUMP JUMPDEST JUMPDEST SWAP1 PUSH1 0x0 MSTORE PUSH1 0x20 PUSH1 0x0 KECCAK256 ADD PUSH1 0x0 SWAP1 SLOAD SWAP1 PUSH2 0x100 EXP SWAP1 DIV PUSH20 0xFFFFFFFFFFFFFFFFFFFFFFFFFFFFFFFFFFFFFFFF AND PUSH1 0x3 DUP3 DUP2 SLOAD DUP2 LT PUSH2 0x5E0 JUMPI PUSH2 0x5DF PUSH2 0xCAC JUMP JUMPDEST JUMPDEST SWAP1 PUSH1 0x0 MSTORE PUSH1 0x20 PUSH1 0x0 KECCAK256 ADD PUSH1 0x0 PUSH2 0x100 EXP DUP2 SLOAD DUP2 PUSH20 0xFFFFFFFFFFFFFFFFFFFFFFFFFFFFFFFFFFFFFFFF MUL NOT AND SWAP1 DUP4 PUSH20 0xFFFFFFFFFFFFFFFFFFFFFFFFFFFFFFFFFFFFFFFF AND MUL OR SWAP1 SSTORE POP PUSH2 0x631 DUP2 PUSH2 0x3C4 JUMP JUMPDEST PUSH2 0x649 JUMP JUMPDEST DUP1 DUP1 PUSH2 0x641 SWAP1 PUSH2 0xD0A JUMP JUMPDEST SWAP2 POP POP PUSH2 0x4FE JUMP JUMPDEST POP POP JUMP JUMPDEST DUP1 PUSH1 0x0 PUSH20 0xFFFFFFFFFFFFFFFFFFFFFFFFFFFFFFFFFFFFFFFF AND PUSH2 0x66F DUP3 PUSH2 0x28E JUMP JUMPDEST PUSH20 0xFFFFFFFFFFFFFFFFFFFFFFFFFFFFFFFFFFFFFFFF AND EQ PUSH2 0x6C5 JUMPI PUSH1 0x40 MLOAD PUSH32 0x8C379A000000000000000000000000000000000000000000000000000000000 DUP2 MSTORE PUSH1 0x4 ADD PUSH2 0x6BC SWAP1 PUSH2 0x10B3 JUMP JUMPDEST PUSH1 0x40 MLOAD DUP1 SWAP2 SUB SWAP1 REVERT JUMPDEST PUSH1 0x3 DUP3 SWAP1 DUP1 PUSH1 0x1 DUP2 SLOAD ADD DUP1 DUP3 SSTORE DUP1 SWAP2 POP POP PUSH1 0x1 SWAP1 SUB SWAP1 PUSH1 0x0 MSTORE PUSH1 0x20 PUSH1 0x0 KECCAK256 ADD PUSH1 0x0 SWAP1 SWAP2 SWAP1 SWAP2 SWAP1 SWAP2 PUSH2 0x100 EXP DUP2 SLOAD DUP2 PUSH20 0xFFFFFFFFFFFFFFFFFFFFFFFFFFFFFFFFFFFFFFFF MUL NOT AND SWAP1 DUP4 PUSH20 0xFFFFFFFFFFFFFFFFFFFFFFFFFFFFFFFFFFFFFFFF AND MUL OR SWAP1 SSTORE POP POP POP JUMP JUMPDEST PUSH1 0x60 PUSH1 0x3 DUP1 SLOAD DUP1 PUSH1 0x20 MUL PUSH1 0x20 ADD PUSH1 0x40 MLOAD SWAP1 DUP2 ADD PUSH1 0x40 MSTORE DUP1 SWAP3 SWAP2 SWAP1 DUP2 DUP2 MSTORE PUSH1 0x20 ADD DUP3 DUP1 SLOAD DUP1 ISZERO PUSH2 0x7B0 JUMPI PUSH1 0x20 MUL DUP3 ADD SWAP2 SWAP1 PUSH1 0x0 MSTORE PUSH1 0x20 PUSH1 0x0 KECCAK256 SWAP1 JUMPDEST DUP2 PUSH1 0x0 SWAP1 SLOAD SWAP1 PUSH2 0x100 EXP SWAP1 DIV PUSH20 0xFFFFFFFFFFFFFFFFFFFFFFFFFFFFFFFFFFFFFFFF AND PUSH20 0xFFFFFFFFFFFFFFFFFFFFFFFFFFFFFFFFFFFFFFFF AND DUP2 MSTORE PUSH1 0x20 ADD SWAP1 PUSH1 0x1 ADD SWAP1 DUP1 DUP4 GT PUSH2 0x766 JUMPI JUMPDEST POP POP POP POP POP SWAP1 POP SWAP1 JUMP JUMPDEST PUSH1 0x0 DUP2 DUP4 PUSH2 0x7C8 SWAP2 SWAP1 PUSH2 0xD52 JUMP JUMPDEST SWAP1 POP SWAP3 SWAP2 POP POP JUMP JUMPDEST PUSH1 0x0 DUP2 DUP4 PUSH2 0x7DE SWAP2 SWAP1 PUSH2 0xD86 JUMP JUMPDEST SWAP1 POP SWAP3 SWAP2 POP POP JUMP JUMPDEST PUSH1 0x0 DUP2 MLOAD SWAP1 POP SWAP2 SWAP1 POP JUMP JUMPDEST PUSH1 0x0 DUP3 DUP3 MSTORE PUSH1 0x20 DUP3 ADD SWAP1 POP SWAP3 SWAP2 POP POP JUMP JUMPDEST PUSH1 0x0 JUMPDEST DUP4 DUP2 LT ISZERO PUSH2 0x820 JUMPI DUP1 DUP3 ADD MLOAD DUP2 DUP5 ADD MSTORE PUSH1 0x20 DUP2 ADD SWAP1 POP PUSH2 0x805 JUMP JUMPDEST PUSH1 0x0 DUP5 DUP5 ADD MSTORE POP POP POP POP JUMP JUMPDEST PUSH1 0x0 PUSH1 0x1F NOT PUSH1 0x1F DUP4 ADD AND SWAP1 POP SWAP2 SWAP1 POP JUMP JUMPDEST PUSH1 0x0 PUSH2 0x848 DUP3 PUSH2 0x7E6 JUMP JUMPDEST PUSH2 0x852 DUP2 DUP6 PUSH2 0x7F1 JUMP JUMPDEST SWAP4 POP PUSH2 0x862 DUP2 DUP6 PUSH1 0x20 DUP7 ADD PUSH2 0x802 JUMP JUMPDEST PUSH2 0x86B DUP2 PUSH2 0x82C JUMP JUMPDEST DUP5 ADD SWAP2 POP POP SWAP3 SWAP2 POP POP JUMP JUMPDEST PUSH1 0x0 PUSH1 0x20 DUP3 ADD SWAP1 POP DUP2 DUP2 SUB PUSH1 0x0 DUP4 ADD MSTORE PUSH2 0x890 DUP2 DUP5 PUSH2 0x83D JUMP JUMPDEST SWAP1 POP SWAP3 SWAP2 POP POP JUMP JUMPDEST PUSH1 0x0 DUP2 SWAP1 POP SWAP2 SWAP1 POP JUMP JUMPDEST PUSH2 0x8AB DUP2 PUSH2 0x898 JUMP JUMPDEST DUP3 MSTORE POP POP JUMP JUMPDEST PUSH1 0x0 PUSH1 0x20 DUP3 ADD SWAP1 POP PUSH2 0x8C6 PUSH1 0x0 DUP4 ADD DUP5 PUSH2 0x8A2 JUMP JUMPDEST SWAP3 SWAP2 POP POP JUMP JUMPDEST PUSH1 0x0 PUSH1 0x40 MLOAD SWAP1 POP SWAP1 JUMP JUMPDEST PUSH1 0x0 DUP1 REVERT JUMPDEST PUSH1 0x0 DUP1 REVERT JUMPDEST PUSH1 0x0 PUSH20 0xFFFFFFFFFFFFFFFFFFFFFFFFFFFFFFFFFFFFFFFF DUP3 AND SWAP1 POP SWAP2 SWAP1 POP JUMP JUMPDEST PUSH1 0x0 PUSH2 0x90B DUP3 PUSH2 0x8E0 JUMP JUMPDEST SWAP1 POP SWAP2 SWAP1 POP JUMP JUMPDEST PUSH2 0x91B DUP2 PUSH2 0x900 JUMP JUMPDEST DUP2 EQ PUSH2 0x926 JUMPI PUSH1 0x0 DUP1 REVERT JUMPDEST POP JUMP JUMPDEST PUSH1 0x0 DUP2 CALLDATALOAD SWAP1 POP PUSH2 0x938 DUP2 PUSH2 0x912 JUMP JUMPDEST SWAP3 SWAP2 POP POP JUMP JUMPDEST PUSH1 0x0 PUSH1 0x20 DUP3 DUP5 SUB SLT ISZERO PUSH2 0x954 JUMPI PUSH2 0x953 PUSH2 0x8D6 JUMP JUMPDEST JUMPDEST PUSH1 0x0 PUSH2 0x962 DUP5 DUP3 DUP6 ADD PUSH2 0x929 JUMP JUMPDEST SWAP2 POP POP SWAP3 SWAP2 POP POP JUMP JUMPDEST PUSH2 0x974 DUP2 PUSH2 0x900 JUMP JUMPDEST DUP3 MSTORE POP POP JUMP JUMPDEST PUSH1 0x0 PUSH1 0x20 DUP3 ADD SWAP1 POP PUSH2 0x98F PUSH1 0x0 DUP4 ADD DUP5 PUSH2 0x96B JUMP JUMPDEST SWAP3 SWAP2 POP POP JUMP JUMPDEST PUSH2 0x99E DUP2 PUSH2 0x898 JUMP JUMPDEST DUP2 EQ PUSH2 0x9A9 JUMPI PUSH1 0x0 DUP1 REVERT JUMPDEST POP JUMP JUMPDEST PUSH1 0x0 DUP2 CALLDATALOAD SWAP1 POP PUSH2 0x9BB DUP2 PUSH2 0x995 JUMP JUMPDEST SWAP3 SWAP2 POP POP JUMP JUMPDEST PUSH1 0x0 PUSH1 0x20 DUP3 DUP5 SUB SLT ISZERO PUSH2 0x9D7 JUMPI PUSH2 0x9D6 PUSH2 0x8D6 JUMP JUMPDEST JUMPDEST PUSH1 0x0 PUSH2 0x9E5 DUP5 DUP3 DUP6 ADD PUSH2 0x9AC JUMP JUMPDEST SWAP2 POP POP SWAP3 SWAP2 POP POP JUMP JUMPDEST PUSH1 0x0 DUP1 REVERT JUMPDEST PUSH1 0x0 DUP1 REVERT JUMPDEST PUSH32 0x4E487B7100000000000000000000000000000000000000000000000000000000 PUSH1 0x0 MSTORE PUSH1 0x41 PUSH1 0x4 MSTORE PUSH1 0x24 PUSH1 0x0 REVERT JUMPDEST PUSH2 0xA30 DUP3 PUSH2 0x82C JUMP JUMPDEST DUP2 ADD DUP2 DUP2 LT PUSH8 0xFFFFFFFFFFFFFFFF DUP3 GT OR ISZERO PUSH2 0xA4F JUMPI PUSH2 0xA4E PUSH2 0x9F8 JUMP JUMPDEST JUMPDEST DUP1 PUSH1 0x40 MSTORE POP POP POP JUMP JUMPDEST PUSH1 0x0 PUSH2 0xA62 PUSH2 0x8CC JUMP JUMPDEST SWAP1 POP PUSH2 0xA6E DUP3 DUP3 PUSH2 0xA27 JUMP JUMPDEST SWAP2 SWAP1 POP JUMP JUMPDEST PUSH1 0x0 PUSH8 0xFFFFFFFFFFFFFFFF DUP3 GT ISZERO PUSH2 0xA8E JUMPI PUSH2 0xA8D PUSH2 0x9F8 JUMP JUMPDEST JUMPDEST PUSH2 0xA97 DUP3 PUSH2 0x82C JUMP JUMPDEST SWAP1 POP PUSH1 0x20 DUP2 ADD SWAP1 POP SWAP2 SWAP1 POP JUMP JUMPDEST DUP3 DUP2 DUP4 CALLDATACOPY PUSH1 0x0 DUP4 DUP4 ADD MSTORE POP POP POP JUMP JUMPDEST PUSH1 0x0 PUSH2 0xAC6 PUSH2 0xAC1 DUP5 PUSH2 0xA73 JUMP JUMPDEST PUSH2 0xA58 JUMP JUMPDEST SWAP1 POP DUP3 DUP2 MSTORE PUSH1 0x20 DUP2 ADD DUP5 DUP5 DUP5 ADD GT ISZERO PUSH2 0xAE2 JUMPI PUSH2 0xAE1 PUSH2 0x9F3 JUMP JUMPDEST JUMPDEST PUSH2 0xAED DUP5 DUP3 DUP6 PUSH2 0xAA4 JUMP JUMPDEST POP SWAP4 SWAP3 POP POP POP JUMP JUMPDEST PUSH1 0x0 DUP3 PUSH1 0x1F DUP4 ADD SLT PUSH2 0xB0A JUMPI PUSH2 0xB09 PUSH2 0x9EE JUMP JUMPDEST JUMPDEST DUP2 CALLDATALOAD PUSH2 0xB1A DUP5 DUP3 PUSH1 0x20 DUP7 ADD PUSH2 0xAB3 JUMP JUMPDEST SWAP2 POP POP SWAP3 SWAP2 POP POP JUMP JUMPDEST PUSH1 0x0 PUSH1 0x20 DUP3 DUP5 SUB SLT ISZERO PUSH2 0xB39 JUMPI PUSH2 0xB38 PUSH2 0x8D6 JUMP JUMPDEST JUMPDEST PUSH1 0x0 DUP3 ADD CALLDATALOAD PUSH8 0xFFFFFFFFFFFFFFFF DUP2 GT ISZERO PUSH2 0xB57 JUMPI PUSH2 0xB56 PUSH2 0x8DB JUMP JUMPDEST JUMPDEST PUSH2 0xB63 DUP5 DUP3 DUP6 ADD PUSH2 0xAF5 JUMP JUMPDEST SWAP2 POP POP SWAP3 SWAP2 POP POP JUMP JUMPDEST PUSH1 0x0 DUP2 MLOAD SWAP1 POP SWAP2 SWAP1 POP JUMP JUMPDEST PUSH1 0x0 DUP3 DUP3 MSTORE PUSH1 0x20 DUP3 ADD SWAP1 POP SWAP3 SWAP2 POP POP JUMP JUMPDEST PUSH1 0x0 DUP2 SWAP1 POP PUSH1 0x20 DUP3 ADD SWAP1 POP SWAP2 SWAP1 POP JUMP JUMPDEST PUSH2 0xBA1 DUP2 PUSH2 0x900 JUMP JUMPDEST DUP3 MSTORE POP POP JUMP JUMPDEST PUSH1 0x0 PUSH2 0xBB3 DUP4 DUP4 PUSH2 0xB98 JUMP JUMPDEST PUSH1 0x20 DUP4 ADD SWAP1 POP SWAP3 SWAP2 POP POP JUMP JUMPDEST PUSH1 0x0 PUSH1 0x20 DUP3 ADD SWAP1 POP SWAP2 SWAP1 POP JUMP JUMPDEST PUSH1 0x0 PUSH2 0xBD7 DUP3 PUSH2 0xB6C JUMP JUMPDEST PUSH2 0xBE1 DUP2 DUP6 PUSH2 0xB77 JUMP JUMPDEST SWAP4 POP PUSH2 0xBEC DUP4 PUSH2 0xB88 JUMP JUMPDEST DUP1 PUSH1 0x0 JUMPDEST DUP4 DUP2 LT ISZERO PUSH2 0xC1D JUMPI DUP2 MLOAD PUSH2 0xC04 DUP9 DUP3 PUSH2 0xBA7 JUMP JUMPDEST SWAP8 POP PUSH2 0xC0F DUP4 PUSH2 0xBBF JUMP JUMPDEST SWAP3 POP POP PUSH1 0x1 DUP2 ADD SWAP1 POP PUSH2 0xBF0 JUMP JUMPDEST POP DUP6 SWAP4 POP POP POP POP SWAP3 SWAP2 POP POP JUMP JUMPDEST PUSH1 0x0 PUSH1 0x20 DUP3 ADD SWAP1 POP DUP2 DUP2 SUB PUSH1 0x0 DUP4 ADD MSTORE PUSH2 0xC44 DUP2 DUP5 PUSH2 0xBCC JUMP JUMPDEST SWAP1 POP SWAP3 SWAP2 POP POP JUMP JUMPDEST PUSH32 0x4E487B7100000000000000000000000000000000000000000000000000000000 PUSH1 0x0 MSTORE PUSH1 0x22 PUSH1 0x4 MSTORE PUSH1 0x24 PUSH1 0x0 REVERT JUMPDEST PUSH1 0x0 PUSH1 0x2 DUP3 DIV SWAP1 POP PUSH1 0x1 DUP3 AND DUP1 PUSH2 0xC93 JUMPI PUSH1 0x7F DUP3 AND SWAP2 POP JUMPDEST PUSH1 0x20 DUP3 LT DUP2 SUB PUSH2 0xCA6 JUMPI PUSH2 0xCA5 PUSH2 0xC4C JUMP JUMPDEST JUMPDEST POP SWAP2 SWAP1 POP JUMP JUMPDEST PUSH32 0x4E487B7100000000000000000000000000000000000000000000000000000000 PUSH1 0x0 MSTORE PUSH1 0x32 PUSH1 0x4 MSTORE PUSH1 0x24 PUSH1 0x0 REVERT JUMPDEST PUSH32 0x4E487B7100000000000000000000000000000000000000000000000000000000 PUSH1 0x0 MSTORE PUSH1 0x11 PUSH1 0x4 MSTORE PUSH1 0x24 PUSH1 0x0 REVERT JUMPDEST PUSH1 0x0 PUSH2 0xD15 DUP3 PUSH2 0x898 JUMP JUMPDEST SWAP2 POP PUSH32 0xFFFFFFFFFFFFFFFFFFFFFFFFFFFFFFFFFFFFFFFFFFFFFFFFFFFFFFFFFFFFFFFF DUP3 SUB PUSH2 0xD47 JUMPI PUSH2 0xD46 PUSH2 0xCDB JUMP JUMPDEST JUMPDEST PUSH1 0x1 DUP3 ADD SWAP1 POP SWAP2 SWAP1 POP JUMP JUMPDEST PUSH1 0x0 PUSH2 0xD5D DUP3 PUSH2 0x898 JUMP JUMPDEST SWAP2 POP PUSH2 0xD68 DUP4 PUSH2 0x898 JUMP JUMPDEST SWAP3 POP DUP3 DUP3 SUB SWAP1 POP DUP2 DUP2 GT ISZERO PUSH2 0xD80 JUMPI PUSH2 0xD7F PUSH2 0xCDB JUMP JUMPDEST JUMPDEST SWAP3 SWAP2 POP POP JUMP JUMPDEST PUSH1 0x0 PUSH2 0xD91 DUP3 PUSH2 0x898 JUMP JUMPDEST SWAP2 POP PUSH2 0xD9C DUP4 PUSH2 0x898 JUMP JUMPDEST SWAP3 POP DUP3 DUP3 ADD SWAP1 POP DUP1 DUP3 GT ISZERO PUSH2 0xDB4 JUMPI PUSH2 0xDB3 PUSH2 0xCDB JUMP JUMPDEST JUMPDEST SWAP3 SWAP2 POP POP JUMP JUMPDEST PUSH32 0x4E487B7100000000000000000000000000000000000000000000000000000000 PUSH1 0x0 MSTORE PUSH1 0x31 PUSH1 0x4 MSTORE PUSH1 0x24 PUSH1 0x0 REVERT JUMPDEST PUSH1 0x0 DUP2 SWAP1 POP DUP2 PUSH1 0x0 MSTORE PUSH1 0x20 PUSH1 0x0 KECCAK256 SWAP1 POP SWAP2 SWAP1 POP JUMP JUMPDEST PUSH1 0x0 PUSH1 0x20 PUSH1 0x1F DUP4 ADD DIV SWAP1 POP SWAP2 SWAP1 POP JUMP JUMPDEST PUSH1 0x0 DUP3 DUP3 SHL SWAP1 POP SWAP3 SWAP2 POP POP JUMP JUMPDEST PUSH1 0x0 PUSH1 0x8 DUP4 MUL PUSH2 0xE4B PUSH32 0xFFFFFFFFFFFFFFFFFFFFFFFFFFFFFFFFFFFFFFFFFFFFFFFFFFFFFFFFFFFFFFFF DUP3 PUSH2 0xE0E JUMP JUMPDEST PUSH2 0xE55 DUP7 DUP4 PUSH2 0xE0E JUMP JUMPDEST SWAP6 POP DUP1 NOT DUP5 AND SWAP4 POP DUP1 DUP7 AND DUP5 OR SWAP3 POP POP POP SWAP4 SWAP3 POP POP POP JUMP JUMPDEST PUSH1 0x0 DUP2 SWAP1 POP SWAP2 SWAP1 POP JUMP JUMPDEST PUSH1 0x0 PUSH2 0xE92 PUSH2 0xE8D PUSH2 0xE88 DUP5 PUSH2 0x898 JUMP JUMPDEST PUSH2 0xE6D JUMP JUMPDEST PUSH2 0x898 JUMP JUMPDEST SWAP1 POP SWAP2 SWAP1 POP JUMP JUMPDEST PUSH1 0x0 DUP2 SWAP1 POP SWAP2 SWAP1 POP JUMP JUMPDEST PUSH2 0xEAC DUP4 PUSH2 0xE77 JUMP JUMPDEST PUSH2 0xEC0 PUSH2 0xEB8 DUP3 PUSH2 0xE99 JUMP JUMPDEST DUP5 DUP5 SLOAD PUSH2 0xE1B JUMP JUMPDEST DUP3 SSTORE POP POP POP POP JUMP JUMPDEST PUSH1 0x0 SWAP1 JUMP JUMPDEST PUSH2 0xED5 PUSH2 0xEC8 JUMP JUMPDEST PUSH2 0xEE0 DUP2 DUP5 DUP5 PUSH2 0xEA3 JUMP JUMPDEST POP POP POP JUMP JUMPDEST JUMPDEST DUP2 DUP2 LT ISZERO PUSH2 0xF04 JUMPI PUSH2 0xEF9 PUSH1 0x0 DUP3 PUSH2 0xECD JUMP JUMPDEST PUSH1 0x1 DUP2 ADD SWAP1 POP PUSH2 0xEE6 JUMP JUMPDEST POP POP JUMP JUMPDEST PUSH1 0x1F DUP3 GT ISZERO PUSH2 0xF49 JUMPI PUSH2 0xF1A DUP2 PUSH2 0xDE9 JUMP JUMPDEST PUSH2 0xF23 DUP5 PUSH2 0xDFE JUMP JUMPDEST DUP2 ADD PUSH1 0x20 DUP6 LT ISZERO PUSH2 0xF32 JUMPI DUP2 SWAP1 POP JUMPDEST PUSH2 0xF46 PUSH2 0xF3E DUP6 PUSH2 0xDFE JUMP JUMPDEST DUP4 ADD DUP3 PUSH2 0xEE5 JUMP JUMPDEST POP POP JUMPDEST POP POP POP JUMP JUMPDEST PUSH1 0x0 DUP3 DUP3 SHR SWAP1 POP SWAP3 SWAP2 POP POP JUMP JUMPDEST PUSH1 0x0 PUSH2 0xF6C PUSH1 0x0 NOT DUP5 PUSH1 0x8 MUL PUSH2 0xF4E JUMP JUMPDEST NOT DUP1 DUP4 AND SWAP2 POP POP SWAP3 SWAP2 POP POP JUMP JUMPDEST PUSH1 0x0 PUSH2 0xF85 DUP4 DUP4 PUSH2 0xF5B JUMP JUMPDEST SWAP2 POP DUP3 PUSH1 0x2 MUL DUP3 OR SWAP1 POP SWAP3 SWAP2 POP POP JUMP JUMPDEST PUSH2 0xF9E DUP3 PUSH2 0x7E6 JUMP JUMPDEST PUSH8 0xFFFFFFFFFFFFFFFF DUP2 GT ISZERO PUSH2 0xFB7 JUMPI PUSH2 0xFB6 PUSH2 0x9F8 JUMP JUMPDEST JUMPDEST PUSH2 0xFC1 DUP3 SLOAD PUSH2 0xC7B JUMP JUMPDEST PUSH2 0xFCC DUP3 DUP3 DUP6 PUSH2 0xF08 JUMP JUMPDEST PUSH1 0x0 PUSH1 0x20 SWAP1 POP PUSH1 0x1F DUP4 GT PUSH1 0x1 DUP2 EQ PUSH2 0xFFF JUMPI PUSH1 0x0 DUP5 ISZERO PUSH2 0xFED JUMPI DUP3 DUP8 ADD MLOAD SWAP1 POP JUMPDEST PUSH2 0xFF7 DUP6 DUP3 PUSH2 0xF79 JUMP JUMPDEST DUP7 SSTORE POP PUSH2 0x105F JUMP JUMPDEST PUSH1 0x1F NOT DUP5 AND PUSH2 0x100D DUP7 PUSH2 0xDE9 JUMP JUMPDEST PUSH1 0x0 JUMPDEST DUP3 DUP2 LT ISZERO PUSH2 0x1035 JUMPI DUP5 DUP10 ADD MLOAD DUP3 SSTORE PUSH1 0x1 DUP3 ADD SWAP2 POP PUSH1 0x20 DUP6 ADD SWAP5 POP PUSH1 0x20 DUP2 ADD SWAP1 POP PUSH2 0x1010 JUMP JUMPDEST DUP7 DUP4 LT ISZERO PUSH2 0x1052 JUMPI DUP5 DUP10 ADD MLOAD PUSH2 0x104E PUSH1 0x1F DUP10 AND DUP3 PUSH2 0xF5B JUMP JUMPDEST DUP4 SSTORE POP JUMPDEST PUSH1 0x1 PUSH1 0x2 DUP9 MUL ADD DUP9 SSTORE POP POP POP JUMPDEST POP POP POP POP POP POP JUMP JUMPDEST PUSH32 0x416C726561647920696E20726F75746500000000000000000000000000000000 PUSH1 0x0 DUP3 ADD MSTORE POP JUMP JUMPDEST PUSH1 0x0 PUSH2 0x109D PUSH1 0x10 DUP4 PUSH2 0x7F1 JUMP JUMPDEST SWAP2 POP PUSH2 0x10A8 DUP3 PUSH2 0x1067 JUMP JUMPDEST PUSH1 0x20 DUP3 ADD SWAP1 POP SWAP2 SWAP1 POP JUMP JUMPDEST PUSH1 0x0 PUSH1 0x20 DUP3 ADD SWAP1 POP DUP2 DUP2 SUB PUSH1 0x0 DUP4 ADD MSTORE PUSH2 0x10CC DUP2 PUSH2 0x1090 JUMP JUMPDEST SWAP1 POP SWAP2 SWAP1 POP JUMP INVALID LOG2 PUSH5 0x6970667358 0x22 SLT KECCAK256 0xC2 0x24 0xE5 SIGNEXTEND 0xD1 0xA8 RETURNDATASIZE INVALID 0xE4 PUSH12 0x1B0146ED15C4D3A654F1AAC2 0xAD 0xD6 DUP14 DIV 0xB6 0xBA 0x2C 0xE0 PUSH12 0xFD64736F6C63430008110033 "},"methodIdentifiers":{"enterWhiteList(address)":"ec5d1901","getCarFromWhitelist(address)":"36e2aed0","getName()":"17d7de7c","getWhiteListedCars()":"f5385e48","getWhiteListedCarsNumber()":"1b847b21","leaveWhiteList(address)":"d240ef6f","reorderWhiteList(uint256)":"ad4977ed","setName(string)":"c47f0027","updateId(uint256)":"6df81c61"}}}}}